:100000000C942A000C9416010C9447000C944700A1
:100010000C9447000C9447000C9447000C94470044
:100020000C9447000C949F010C9447000C944700DB
:100030000C9447000C9447000C9447000C94470024
:100040000C9447000C9447000C9447000C94470014
:100050000C94470011241FBECFE5D4E0DEBFCDBF16
:1000600010E0A0E6B0E0E0E8F7E002C005900D92F5
:10007000A83DB107D9F721E0A8EDB0E001C01D927D
:10008000A23BB207E1F70E9453000C94BE030C940C
:100090000000019739F0880F991F880F991F029768
:1000A0000197F1F708950E94EB0111BA8FEF8ABB17
:1000B00083E085BF80E48BBF78940E94C401609385
:1000C000A2017093A3018093A4019093A501789459
:1000D0008091A2019091A301A091A401B091A501EA
:1000E000C090AE01D090AF01E090B001F090B101AE
:1000F000BC01CD016C197D098E099F096093A60191
:100100007093A7018093A8019093A9010E949A027D
:100110006B017C018090D9009090DA00A090DB0008
:10012000B090DC0020E030E040EF52E4C501B401C3
:100130000E9451039B01AC01C701B6010E944C0310
:1001400088230CF471C020E030E042EF52E4C50196
:10015000B4010E9451039B01AC01C701B6010E948A
:10016000F40188230CF060C08091D800811155C043
:100170005BC0FB01E05AFF4F5081E42FF0E081E0CB
:1001800090E09C01042E02C0220F331F0A94E2F774
:10019000852F90E082239323042E02C095958795A6
:1001A0000A94E2F7892B89F42BB387E090E0DC0115
:1001B000AE1BBF0B81E090E002C0880F991FAA958B
:1001C000E2F7809582238BBB0EC05BB327E030E063
:1001D0002E1B3F0B81E090E002C0880F991F2A95EB
:1001E000E2F7852B8BBB4F5F01C041E0483008F23E
:1001F00020E030E040E450E46091D9007091DA00F2
:100200008091DB009091DC000E9451030E946B0200
:10021000CB010E944900219602C0C0E0D0E0BE019F
:10022000C937D10510F349CF1BBA47CF1F920F92A0
:100230000FB60F9211240F931F932F933F934F9359
:100240005F936F937F938F939F93AF93BF93EF933E
:10025000FF930E94C4016093E6007093E7008093CF
:10026000E8009093E9007894829B56C08091E10069
:10027000811114C081E08093E1008091E6009091AB
:10028000E700A091E800B091E9008093E20090932C
:10029000E300A093E400B093E5003EC08091E60047
:1002A0009091E700A091E800B091E9000091E20090
:1002B0001091E3002091E4003091E500BC01CD01F4
:1002C000601B710B820B930B0E949A026093DD00FE
:1002D0007093DE008093DF009093E00020E030E038
:1002E00044EB53E40E94F9016093D9007093DA0063
:1002F0008093DB009093DC001092E1000E94C40127
:100300006093AE017093AF018093B0019093B101FF
:10031000789481E08093D800FF91EF91BF91AF91E5
:100320009F918F917F916F915F914F913F912F910D
:100330001F910F910F900FBE0F901F9018951F9255
:100340000F920FB60F9211248F939F93AF93BF9389
:100350008091EA009091EB00A091EC00B091ED004B
:100360000196A11DB11D8093EA009093EB00A0932C
:10037000EC00B093ED00BF91AF919F918F910F90E2
:100380000FBE0F901F9018953FB7F8948091EA0028
:100390009091EB00A091EC00B091ED0022B708B66F
:1003A00000FE05C02F3F19F00196A11DB11D3FBFF2
:1003B000BA2FA92F982F8827820F911DA11DB11D3B
:1003C000BC01CD01660F771F881F991F660F771F2D
:1003D000881F991F089513BE12BE83E083BF89B79B
:1003E000816089BF789408950E94D70208F481E063
:1003F00008950E940D020C9412030E940B0358F002
:100400000E94040340F029F45F3F29F00C94FB02A2
:1004100051110C9446030C9401030E94230368F3CA
:100420009923B1F3552391F3951B550BBB27AA27AD
:1004300062177307840738F09F5F5F4F220F331FE7
:10044000441FAA1FA9F335D00E2E3AF0E0E832D0AF
:1004500091505040E695001CCAF72BD0FE2F29D0B2
:10046000660F771F881FBB1F261737074807AB0784
:10047000B0E809F0BB0B802DBF01FF2793585F4FF9
:100480003AF09E3F510578F00C94FB020C94460321
:100490005F3FE4F3983ED4F3869577956795B795DB
:1004A000F7959F5FC9F7880F911D9695879597F9E6
:1004B0000895E1E0660F771F881FBB1F621773075F
:1004C0008407BA0720F0621B730B840BBA0BEE1F74
:1004D00088F7E09508950E942B0388F09F5798F0C5
:1004E000B92F9927B751B0F0E1F0660F771F881F39
:1004F000991F1AF0BA95C9F714C0B13091F00E9453
:100500004503B1E008950C944503672F782F8827A1
:10051000B85F39F0B93FCCF3869577956795B39579
:10052000D9F73EF490958095709561957F4F8F4FE8
:100530009F4F0895E89409C097FB3EF490958095ED
:10054000709561957F4F8F4F9F4F9923A9F0F92F99
:1005500096E9BB279395F695879577956795B79517
:10056000F111F8CFFAF4BB0F11F460FF1BC06F5FFD
:100570007F4F8F4F9F4F16C0882311F096E911C00F
:10058000772321F09EE8872F762F05C0662371F030
:1005900096E8862F70E060E02AF09A95660F771F44
:1005A000881FDAF7880F9695879597F90895990F20
:1005B0000008550FAA0BE0E8FEEF16161706E8072D
:1005C000F907C0F012161306E407F50798F0621B4E
:1005D000730B840B950B39F40A2661F0232B242B23
:1005E000252B21F408950A2609F4A140A6958FEF42
:1005F000811D811D089597F99F6780E870E060E094
:1006000008959FEF80EC089500240A9416161706AB
:1006100018060906089500240A94121613061406F3
:1006200005060895092E0394000C11F4882352F056
:10063000BB0F40F4BF2B11F460FF04C06F5F7F4F0E
:100640008F4F9F4F089557FD9058440F551F59F0F5
:100650005F3F71F04795880F97FB991F61F09F3FAF
:1006600079F087950895121613061406551FF2CFD8
:100670004695F1DF08C0161617061806991FF1CF28
:1006800086957105610508940895E894BB2766274F
:100690007727CB0197F908950E94D70208F48FEFCE
:1006A00008950E9464030C9412030E94040338F01E
:1006B0000E940B0320F0952311F00C94FB020C9484
:1006C000010311240C9446030E94230370F3959FA9
:1006D000C1F3950F50E0551F629FF001729FBB2739
:1006E000F00DB11D639FAA27F00DB11DAA1F649FD5
:1006F0006627B00DA11D661F829F2227B00DA11D88
:10070000621F739FB00DA11D621F839FA00D611D0D
:10071000221F749F3327A00D611D231F849F600D2E
:10072000211D822F762F6A2F11249F5750409AF057
:10073000F1F088234AF0EE0FFF1FBB1F661F771FE3
:10074000881F91505040A9F79E3F510580F00C94AE
:10075000FB020C9446035F3FE4F3983ED4F3869586
:1007600077956795B795F795E7959F5FC1F7FE2B4E
:10077000880F911D9695879597F90895F894FFCF66
:10078000000000000000000000008080008080A0C9
:1007900020E0E0E0F0E000000000000000000000C9
:1007A0000000004040E0F0E0E0C000808080008079
:1007B0008000000000000000000000000000404039
:1007C00040C0C0E0C0C04040C0404060E06040C0A9
:1007D000C0E0606060606060606060606060606039
:1007E00060E0C0C04060E0604040C04040C0C0E049
:0807F000C0C0404040000000C1
:00000001FF
