:100000000C942A000C9460000C9447000C94470058
:100010000C9447000C9447000C9447000C94470044
:100020000C9447000C94C6000C9447000C944700B5
:100030000C9447000C9447000C9447000C94470024
:100040000C9447000C9447000C9447000C94470014
:100050000C94470011241FBECFE5D4E0DEBFCDBF16
:1000600011E0A0E6B0E0EAECF7E002C005900D92E6
:10007000A039B107D9F711E0A0E9B1E001C01D92A4
:10008000A23BB107E1F70E9449000C94E3030C94F2
:10009000000011BA8FEF8ABB789482E085BF8BB7DE
:1000A00080648BBF29E130E08BB380958BBB80E30C
:1000B00095E7F9013197F1F70197D9F77894F4CFE3
:1000C0001F920F920FB60F9211242F933F934F93CD
:1000D0005F936F937F938F939F93AF93BF93EF93B0
:1000E000FF937894829B41C080919C012091940160
:1000F000309195014091960150919701882361F4C8
:1001000081E080939C012093980130939901409362
:100110009A0150939B0129C0809198019091990177
:10012000A0919A01B0919B01281B390B4A0B5B0BE4
:10013000CA01B9010E94970160939D0170939E01CD
:1001400080939F019093A00120E030E044EB53E4C2
:100150000E94EB006093A1017093A2018093A30120
:100160009093A40110929C017894FF91EF91BF911C
:10017000AF919F918F917F916F915F914F913F913F
:100180002F910F900FBE0F901F9018951F920F92F6
:100190000FB60F9211248F939F93AF93BF938091CB
:1001A000900190919101A0919201B09193010196DB
:1001B000A11DB11D8093900190939101A093920194
:1001C000B0939301BF91AF919F918F910F900FBE0C
:1001D0000F901F901895A8E1B0E0E1EFF0E00C94CB
:1001E000B40369837A838B839C832D833E834F83FF
:1001F0005887B9E0EB2EF12CEC0EFD1ECE010196D6
:10020000B7010E9434038E010F5E1F4FCE01059689
:10021000B8010E9434032985223008F47EC0398950
:10022000323010F4B8017CC08A859A8989278A8780
:10023000243011F0223031F4231709F06EC068E841
:1002400070E06EC0343039F41D861E861F86188A11
:100250001C861B8604C0323021F484E08987B701F4
:100260005FC02B853C858B899C89281B390B3C877B
:100270002B87ED84FE840F851889AD88BE88CF88D2
:10028000D88CEA14FB040C051D0540F4EE0CFF1C91
:10029000001F111F215030403C872B8720E030E0A9
:1002A00040E050E080E090E0A0E0B0E460E070E08A
:1002B000EA14FB040C051D0540F0282B392B4A2BB2
:1002C0005B2BEA18FB080C091D09B695A7959795B5
:1002D0008795EE0CFF1C001F111F6F5F7F4F6F3162
:1002E000710531F7DA01C9018F779070A070B07095
:1002F00080349105A105B10561F427FD0AC0E11420
:10030000F1040105110529F0205C3F4F4F4F5F4F6D
:1003100020782D873E874F87588BBE01675F7F4FC0
:10032000CB010E945F026896EAE00C94D003A8E03B
:10033000B0E0EDE9F1E00C94B4037B018C016115B0
:1003400071058105910519F482E0898360C083E01D
:1003500089838EE1C82ED12CDC82CB82ED82FE8295
:100360000F831887C801B7010E941002FC01319762
:10037000F7FF3BC0222733272E1B3F0B5701680195
:10038000022E04C0D694C794B794A7940A94D2F7C7
:1003900040E050E060E070E081E090E0A0E0B0E09C
:1003A00004C0880F991FAA1FBB1F2A95D2F7019777
:1003B000A109B1098E219F21A023B1230097A10596
:1003C000B10521F041E050E060E070E04A295B298E
:1003D0006C297D294D835E836F8378878EE190E061
:1003E0008E1B9F0B9C838B8312C0309781F00E2E47
:1003F00004C0EE0CFF1C001F111F0A94D2F7ED82FF
:10040000FE820F831887CE1ADF0ADC82CB821A8223
:10041000CE0101960E945F022896EAE00C94D00378
:10042000EF92FF920F931F937B018C0180E0E816FF
:1004300080E0F80681E0080780E0180788F48FEF75
:10044000E816F1040105110531F028F088E090E08C
:10045000A0E0B0E017C080E090E0A0E0B0E012C003
:1004600080E0E81680E0F80680E0080781E01807E1
:1004700028F088E190E0A0E0B0E004C080E190E0E6
:10048000A0E0B0E020E230E040E050E0281B390B73
:100490004A0B5B0B04C016950795F794E7948A9571
:1004A000D2F7F701E057FF4F8081281B310941093E
:1004B0005109C9011F910F91FF90EF900895DF92AC
:1004C000EF92FF920F931F93FC01E480F580068169
:1004D0001781D1808081823048F480E090E0A0E1F3
:1004E000B0E0E82AF92A0A2B1B2BA5C0843009F4B6
:1004F0009FC0823021F4EE24FF24870105C0E1145F
:10050000F1040105110519F4E0E0F0E096C0628104
:1005100073819FEF623879070CF05BC022E83FEFF0
:10052000261B370B2A3131052CF020E030E040E06B
:1005300050E02AC0B801A701022E04C07695679545
:10054000579547950A94D2F781E090E0A0E0B0E09B
:1005500004C0880F991FAA1FBB1F2A95D2F70197C5
:10056000A109B1098E219F21A023B1230097A105E4
:10057000B10521F081E090E0A0E0B0E09A01AB018C
:10058000282B392B4A2B5B2BDA01C9018F7790700E
:10059000A070B07080349105A105B10539F427FF32
:1005A00009C0205C3F4F4F4F5F4F04C0215C3F4F5D
:1005B0004F4F5F4FE0E0F0E02030A0E03A07A0E0CE
:1005C0004A07A0E45A0710F0E1E0F0E079018A015F
:1005D00027C06038710564F5FB01E158FF4FD80171
:1005E000C7018F779070A070B07080349105A1051D
:1005F000B10539F4E7FE0DC080E490E0A0E0B0E082
:1006000004C08FE390E0A0E0B0E0E80EF91E0A1FFE
:100610001B1F17FF05C016950795F794E7943196B1
:1006200087E016950795F794E7948A95D1F705C06A
:10063000EE24FF248701EFEFF0E06E2F6795662729
:100640006795902F9F77D794DD24D7948E2F86952A
:10065000492F462B582F5D29B701CA011F910F91D1
:10066000FF90EF90DF900895FC01DB014081518104
:100670002281622F6F7770E0221F2227221F938131
:10068000892F880F822B282F30E0991F9927991FD7
:1006900011969C93119721153105A9F54115510526
:1006A0006105710511F482E037C082E89FEF13966F
:1006B0009C938E9312979A01AB0167E0220F331F30
:1006C000441F551F6A95D1F783E08C930DC0220F0C
:1006D000331F441F551F12968D919C9113970197BC
:1006E00013969C938E931297203080E0380780E019
:1006F000480780E4580758F314962D933D934D9383
:100700005C93179708952F3F310579F441155105F2
:100710006105710519F484E08C93089564FF03C0AA
:1007200081E08C9312C01C9210C02F57304013965A
:100730003C932E93129783E08C9387E0440F551FD0
:10074000661F771F8A95D1F7706414964D935D9359
:100750006D937C93179708952F923F924F925F92DB
:100760006F927F928F929F92AF92BF92CF92DF92C1
:10077000EF92FF920F931F93CF93DF93CDB7DEB726
:10078000CA1BDB0B0FB6F894DEBF0FBECDBF0994BA
:100790002A88398848885F846E847D848C849B8411
:1007A000AA84B984C884DF80EE80FD800C811B811F
:1007B000AA81B981CE0FD11D0FB6F894DEBF0FBE4E
:0A07C000CDBFED010895F894FFCFBE
:1007CA000101010101010000000000010000000117
:1007DA000000000100000001010101010101000007
:1007EA0000000000000000000000000000000000FF
:1007FA0000010202030303030404040404040404BE
:10080A00050505050505050505050505050505058E
:10081A00060606060606060606060606060606066E
:10082A00060606060606060606060606060606065E
:10083A00070707070707070707070707070707073E
:10084A00070707070707070707070707070707072E
:10085A00070707070707070707070707070707071E
:10086A00070707070707070707070707070707070E
:10087A0008080808080808080808080808080808EE
:10088A0008080808080808080808080808080808DE
:10089A0008080808080808080808080808080808CE
:1008AA0008080808080808080808080808080808BE
:1008BA0008080808080808080808080808080808AE
:1008CA00080808080808080808080808080808089E
:1008DA00080808080808080808080808080808088E
:1008EA00080808080808080808080808080808087E
:00000001FF
